{
  "description": "coreth GenerateChainWithGenesis: AP3 (London) genesis(1 funded EOA) -\u003e block 1 (one value transfer). Roots over STANDARD 4-field account RLP [nonce,balance,storageRoot,codeHash] (Firewood-ethhash encoding); coreth 5-field StateAccount roots recorded separately. Post-state uses the BURN fee model (revm LONDON default): base fee burned, coinbase empty; sender/recipient balances+nonces read from coreth's executed StateDB (identical to revm). The base-fee-to-coinbase override is M6.13 scope.",
  "chain_id": 1,
  "account_encoding": "standard-eth-4field",
  "genesis_base_fee": "225000000000",
  "alloc": [
    {
      "address": "0x71562b71999873DB5b286dF957af199Ec94617F7",
      "balance": "100000000000000000000"
    }
  ],
  "genesis_state_root": "0x329276a29086577f6f75c80fde55c49876246549d03ed8c2d747523fa08d859f",
  "coreth_genesis_state_root_5field": "0x9cb21ede1b41fbde19d5b94369f5bddd65cd3200e90dea54dc3d710d9e4afacb",
  "block1_rlp": "0xf902e0f9026aa04799b8cfa2b0b1e3642ab52381285deddd4cd4bbd2e03545c9c29d01d631706ea01dcc4de8dec75d7aab85b567b6ccd41ad312451b948a7413f0a142fd40d49347940000000000000000000000000000000000000000a08b0bf83471bff5b54809ffbff89e31872c162496382747eeaa9d6f4af725a71aa0fbae2aadef8be6e127630be26b4064f8316ac66e43e5d0fd4531c5af720a5eb8a0056b23fbba480696b65fe5a59b8f2148a1299103c4f57df839233af2cf4ca2d2b90100000000000000000000000000000000000000000000000000000000000000000000000000000000000000000000000000000000000000000000000000000000000000000000000000000000000000000000000000000000000000000000000000000000000000000000000000000000000000000000000000000000000000000000000000000000000000000000000000000000000000000000000000000000000000000000000000000000000000000000000000000000000000000000000000000000000000000000000000000000000000000000000000000000000000000000000000000000000000000000000000000000000000000000000000000000000101837a12008252080ab8500000000000000000000000000000000000000000000000000000000000000000000000000000000000000000000000000000000000000000000000000000000000000000000000000000000000000000a00000000000000000000000000000000000000000000000000000000000000000880000000000000000a056e81f171bcc55a6ff8345e692c0f86e5b48e01b996cadc001622fb5e363b4218534630b8a00f86ef86c808534630b8a00825208942222222222222222222222222222222222222222880de0b6b3a76400008025a00955b36c6d8fa1d97e5afe2d398abac0eb7b6e99858114ad14efc90defc96b0ba005e1f1c07f78c649c01f51824ec54dd817acbea818eb242511d641903d4d5b94c08080",
  "block1_txs": [
    "0xf86c808534630b8a00825208942222222222222222222222222222222222222222880de0b6b3a76400008025a00955b36c6d8fa1d97e5afe2d398abac0eb7b6e99858114ad14efc90defc96b0ba005e1f1c07f78c649c01f51824ec54dd817acbea818eb242511d641903d4d5b94"
  ],
  "block1_hash": "0xb2b66a299701a63a4d618425376c489e2d500b75d20637fcccda6d8d762d1385",
  "block1_timestamp": 10,
  "block1_base_fee": "225000000000",
  "block1_gas_limit": 8000000,
  "block1_coinbase": "0x0000000000000000000000000000000000000000",
  "block1_parent_hash": "0x4799b8cfa2b0b1e3642ab52381285deddd4cd4bbd2e03545c9c29d01d631706e",
  "block1_number": 1,
  "post_state": [
    {
      "address": "0x2222222222222222222222222222222222222222",
      "nonce": 0,
      "balance": "1000000000000000000"
    },
    {
      "address": "0x71562b71999873DB5b286dF957af199Ec94617F7",
      "nonce": 1,
      "balance": "98995275000000000000"
    }
  ],
  "expected_post_state_root": "0x57842fa67bad389745afc39f78f73a9418fbdfea9ea562c524a41a32db7a7c47",
  "coreth_post_state_root_5field": "0x8b0bf83471bff5b54809ffbff89e31872c162496382747eeaa9d6f4af725a71a"
}
